{
    "contractName": "CoffeeHandler",
    "abi": [
        {
            "constant": true,
            "inputs": [
                {
                    "internalType": "address",
                    "name": "",
                    "type": "address"
                },
                {
                    "internalType": "address",
                    "name": "",
                    "type": "address"
                }
            ],
            "name": "tokensMintApproved",
            "outputs": [
                {
                    "internalType": "uint256",
                    "name": "",
                    "type": "uint256"
                }
            ],
            "payable": false,
            "stateMutability": "view",
            "type": "function"
        },
        {
            "constant": false,
            "inputs": [
                {
                    "internalType": "uint256",
                    "name": "_STAKE_RATE",
                    "type": "uint256"
                }
            ],
            "name": "setStakeRate",
            "outputs": [],
            "payable": false,
            "stateMutability": "nonpayable",
            "type": "function"
        },
        {
            "constant": false,
            "inputs": [
                {
                    "internalType": "contract IERC20WCC",
                    "name": "_WCC_CONTRACT",
                    "type": "address"
                }
            ],
            "name": "setWCCContract",
            "outputs": [],
            "payable": false,
            "stateMutability": "nonpayable",
            "type": "function"
        },
        {
            "constant": false,
            "inputs": [
                {
                    "internalType": "address",
                    "name": "_validator",
                    "type": "address"
                },
                {
                    "internalType": "uint256",
                    "name": "_amount",
                    "type": "uint256"
                }
            ],
            "name": "approveMint",
            "outputs": [],
            "payable": false,
            "stateMutability": "nonpayable",
            "type": "function"
        },
        {
            "constant": false,
            "inputs": [],
            "name": "liquidateStakedDAI",
            "outputs": [],
            "payable": false,
            "stateMutability": "nonpayable",
            "type": "function"
        },
        {
            "constant": true,
            "inputs": [
                {
                    "internalType": "address",
                    "name": "",
                    "type": "address"
                }
            ],
            "name": "userToStake",
            "outputs": [
                {
                    "internalType": "uint256",
                    "name": "",
                    "type": "uint256"
                }
            ],
            "payable": false,
            "stateMutability": "view",
            "type": "function"
        },
        {
            "constant": true,
            "inputs": [],
            "name": "STAKE_RATE",
            "outputs": [
                {
                    "internalType": "uint256",
                    "name": "",
                    "type": "uint256"
                }
            ],
            "payable": false,
            "stateMutability": "view",
            "type": "function"
        },
        {
            "constant": false,
            "inputs": [],
            "name": "removeAllStakedDAI",
            "outputs": [],
            "payable": false,
            "stateMutability": "nonpayable",
            "type": "function"
        },
        {
            "constant": true,
            "inputs": [
                {
                    "internalType": "uint256",
                    "name": "_amount",
                    "type": "uint256"
                }
            ],
            "name": "requiredAmount",
            "outputs": [
                {
                    "internalType": "uint256",
                    "name": "",
                    "type": "uint256"
                }
            ],
            "payable": false,
            "stateMutability": "view",
            "type": "function"
        },
        {
            "constant": true,
            "inputs": [
                {
                    "internalType": "address",
                    "name": "",
                    "type": "address"
                }
            ],
            "name": "tokensUsed",
            "outputs": [
                {
                    "internalType": "uint256",
                    "name": "",
                    "type": "uint256"
                }
            ],
            "payable": false,
            "stateMutability": "view",
            "type": "function"
        },
        {
            "constant": true,
            "inputs": [],
            "name": "COFFEE_PRICE",
            "outputs": [
                {
                    "internalType": "uint256",
                    "name": "",
                    "type": "uint256"
                }
            ],
            "payable": false,
            "stateMutability": "view",
            "type": "function"
        },
        {
            "constant": false,
            "inputs": [
                {
                    "internalType": "uint256",
                    "name": "_amount",
                    "type": "uint256"
                }
            ],
            "name": "stakeDAI",
            "outputs": [],
            "payable": false,
            "stateMutability": "nonpayable",
            "type": "function"
        },
        {
            "constant": false,
            "inputs": [
                {
                    "internalType": "uint256",
                    "name": "_amount",
                    "type": "uint256"
                }
            ],
            "name": "burnTokens",
            "outputs": [],
            "payable": false,
            "stateMutability": "nonpayable",
            "type": "function"
        },
        {
            "constant": false,
            "inputs": [],
            "name": "renounceOwnership",
            "outputs": [],
            "payable": false,
            "stateMutability": "nonpayable",
            "type": "function"
        },
        {
            "constant": true,
            "inputs": [],
            "name": "WCC_CONTRACT",
            "outputs": [
                {
                    "internalType": "contract IERC20WCC",
                    "name": "",
                    "type": "address"
                }
            ],
            "payable": false,
            "stateMutability": "view",
            "type": "function"
        },
        {
            "constant": false,
            "inputs": [
                {
                    "internalType": "contract IERC20",
                    "name": "_DAI_CONTRACT",
                    "type": "address"
                }
            ],
            "name": "setDAIContract",
            "outputs": [],
            "payable": false,
            "stateMutability": "nonpayable",
            "type": "function"
        },
        {
            "constant": true,
            "inputs": [],
            "name": "owner",
            "outputs": [
                {
                    "internalType": "address",
                    "name": "",
                    "type": "address"
                }
            ],
            "payable": false,
            "stateMutability": "view",
            "type": "function"
        },
        {
            "constant": true,
            "inputs": [],
            "name": "isOwner",
            "outputs": [
                {
                    "internalType": "bool",
                    "name": "",
                    "type": "bool"
                }
            ],
            "payable": false,
            "stateMutability": "view",
            "type": "function"
        },
        {
            "constant": false,
            "inputs": [
                {
                    "internalType": "uint256",
                    "name": "_amount",
                    "type": "uint256"
                }
            ],
            "name": "removeStakedDAI",
            "outputs": [],
            "payable": false,
            "stateMutability": "nonpayable",
            "type": "function"
        },
        {
            "constant": true,
            "inputs": [],
            "name": "DAI_CONTRACT",
            "outputs": [
                {
                    "internalType": "contract IERC20",
                    "name": "",
                    "type": "address"
                }
            ],
            "payable": false,
            "stateMutability": "view",
            "type": "function"
        },
        {
            "constant": true,
            "inputs": [
                {
                    "internalType": "address",
                    "name": "",
                    "type": "address"
                }
            ],
            "name": "userToValidator",
            "outputs": [
                {
                    "internalType": "address",
                    "name": "",
                    "type": "address"
                }
            ],
            "payable": false,
            "stateMutability": "view",
            "type": "function"
        },
        {
            "constant": false,
            "inputs": [
                {
                    "internalType": "uint256",
                    "name": "_amount",
                    "type": "uint256"
                }
            ],
            "name": "redeemTokens",
            "outputs": [],
            "payable": false,
            "stateMutability": "nonpayable",
            "type": "function"
        },
        {
            "constant": true,
            "inputs": [],
            "name": "openingTime",
            "outputs": [
                {
                    "internalType": "uint256",
                    "name": "",
                    "type": "uint256"
                }
            ],
            "payable": false,
            "stateMutability": "view",
            "type": "function"
        },
        {
            "constant": false,
            "inputs": [
                {
                    "internalType": "address",
                    "name": "_owner",
                    "type": "address"
                },
                {
                    "internalType": "uint256",
                    "name": "_amount",
                    "type": "uint256"
                }
            ],
            "name": "mintTokens",
            "outputs": [],
            "payable": false,
            "stateMutability": "nonpayable",
            "type": "function"
        },
        {
            "constant": false,
            "inputs": [
                {
                    "internalType": "address",
                    "name": "newOwner",
                    "type": "address"
                }
            ],
            "name": "transferOwnership",
            "outputs": [],
            "payable": false,
            "stateMutability": "nonpayable",
            "type": "function"
        },
        {
            "constant": false,
            "inputs": [
                {
                    "internalType": "uint256",
                    "name": "_COFFEE_PRICE",
                    "type": "uint256"
                }
            ],
            "name": "setCoffeePrice",
            "outputs": [],
            "payable": false,
            "stateMutability": "nonpayable",
            "type": "function"
        },
        {
            "inputs": [],
            "payable": false,
            "stateMutability": "nonpayable",
            "type": "constructor"
        },
        {
            "anonymous": false,
            "inputs": [
                {
                    "indexed": true,
                    "internalType": "address",
                    "name": "_owner",
                    "type": "address"
                },
                {
                    "indexed": false,
                    "internalType": "contract IERC20",
                    "name": "_contract",
                    "type": "address"
                }
            ],
            "name": "LogSetDAIContract",
            "type": "event"
        },
        {
            "anonymous": false,
            "inputs": [
                {
                    "indexed": true,
                    "internalType": "address",
                    "name": "_owner",
                    "type": "address"
                },
                {
                    "indexed": false,
                    "internalType": "contract IERC20WCC",
                    "name": "_contract",
                    "type": "address"
                }
            ],
            "name": "LogSetWCCContract",
            "type": "event"
        },
        {
            "anonymous": false,
            "inputs": [
                {
                    "indexed": true,
                    "internalType": "address",
                    "name": "_owner",
                    "type": "address"
                },
                {
                    "indexed": false,
                    "internalType": "uint256",
                    "name": "_coffeePrice",
                    "type": "uint256"
                }
            ],
            "name": "LogSetCoffeePrice",
            "type": "event"
        },
        {
            "anonymous": false,
            "inputs": [
                {
                    "indexed": true,
                    "internalType": "address",
                    "name": "_owner",
                    "type": "address"
                },
                {
                    "indexed": false,
                    "internalType": "uint256",
                    "name": "_stakeRate",
                    "type": "uint256"
                }
            ],
            "name": "LogSetStakeRate",
            "type": "event"
        },
        {
            "anonymous": false,
            "inputs": [
                {
                    "indexed": true,
                    "internalType": "address",
                    "name": "_staker",
                    "type": "address"
                },
                {
                    "indexed": false,
                    "internalType": "uint256",
                    "name": "_amount",
                    "type": "uint256"
                },
                {
                    "indexed": false,
                    "internalType": "uint256",
                    "name": "_currentStake",
                    "type": "uint256"
                }
            ],
            "name": "LogStakeDAI",
            "type": "event"
        },
        {
            "anonymous": false,
            "inputs": [
                {
                    "indexed": true,
                    "internalType": "address",
                    "name": "_staker",
                    "type": "address"
                },
                {
                    "indexed": false,
                    "internalType": "uint256",
                    "name": "_amount",
                    "type": "uint256"
                },
                {
                    "indexed": false,
                    "internalType": "uint256",
                    "name": "_currentStake",
                    "type": "uint256"
                }
            ],
            "name": "LogRemoveStakedDAI",
            "type": "event"
        },
        {
            "anonymous": false,
            "inputs": [
                {
                    "indexed": true,
                    "internalType": "address",
                    "name": "_staker",
                    "type": "address"
                },
                {
                    "indexed": false,
                    "internalType": "uint256",
                    "name": "_amount",
                    "type": "uint256"
                },
                {
                    "indexed": false,
                    "internalType": "uint256",
                    "name": "_currentStake",
                    "type": "uint256"
                }
            ],
            "name": "LogRemoveAllStakedDAI",
            "type": "event"
        },
        {
            "anonymous": false,
            "inputs": [
                {
                    "indexed": true,
                    "internalType": "address",
                    "name": "_staker",
                    "type": "address"
                },
                {
                    "indexed": false,
                    "internalType": "address",
                    "name": "owner",
                    "type": "address"
                },
                {
                    "indexed": false,
                    "internalType": "uint256",
                    "name": "_amount",
                    "type": "uint256"
                },
                {
                    "indexed": false,
                    "internalType": "uint256",
                    "name": "_currentUsed",
                    "type": "uint256"
                }
            ],
            "name": "LogMintTokens",
            "type": "event"
        },
        {
            "anonymous": false,
            "inputs": [
                {
                    "indexed": true,
                    "internalType": "address",
                    "name": "_staker",
                    "type": "address"
                },
                {
                    "indexed": false,
                    "internalType": "address",
                    "name": "owner",
                    "type": "address"
                },
                {
                    "indexed": false,
                    "internalType": "uint256",
                    "name": "_amount",
                    "type": "uint256"
                },
                {
                    "indexed": false,
                    "internalType": "uint256",
                    "name": "_currentUsed",
                    "type": "uint256"
                }
            ],
            "name": "LogBurnTokens",
            "type": "event"
        },
        {
            "anonymous": false,
            "inputs": [
                {
                    "indexed": true,
                    "internalType": "address",
                    "name": "_owner",
                    "type": "address"
                },
                {
                    "indexed": false,
                    "internalType": "address",
                    "name": "_staker",
                    "type": "address"
                },
                {
                    "indexed": false,
                    "internalType": "uint256",
                    "name": "amount",
                    "type": "uint256"
                }
            ],
            "name": "LogApproveMint",
            "type": "event"
        },
        {
            "anonymous": false,
            "inputs": [
                {
                    "indexed": true,
                    "internalType": "address",
                    "name": "_staker",
                    "type": "address"
                },
                {
                    "indexed": false,
                    "internalType": "address",
                    "name": "owner",
                    "type": "address"
                },
                {
                    "indexed": false,
                    "internalType": "uint256",
                    "name": "_amount",
                    "type": "uint256"
                },
                {
                    "indexed": false,
                    "internalType": "uint256",
                    "name": "_currentUsed",
                    "type": "uint256"
                }
            ],
            "name": "LogRedeemTokens",
            "type": "event"
        },
        {
            "anonymous": false,
            "inputs": [
                {
                    "indexed": true,
                    "internalType": "address",
                    "name": "_owner",
                    "type": "address"
                },
                {
                    "indexed": false,
                    "internalType": "uint256",
                    "name": "_amount",
                    "type": "uint256"
                }
            ],
            "name": "LogLiquidateStakedDAI",
            "type": "event"
        },
        {
            "anonymous": false,
            "inputs": [
                {
                    "indexed": true,
                    "internalType": "address",
                    "name": "previousOwner",
                    "type": "address"
                },
                {
                    "indexed": true,
                    "internalType": "address",
                    "name": "newOwner",
                    "type": "address"
                }
            ],
            "name": "OwnershipTransferred",
            "type": "event"
        }
    ],
    "bytecode": "608060405234801561001057600080fd5b506100226001600160e01b0361007316565b600080546001600160a01b0319166001600160a01b03928316178082556040519216917f8be0079c531659141344cd1fd0a4f28419497f9722a3daafe3b4186f6b6457e0908290a342600955610077565b3390565b611ab3806100866000396000f3fe608060405234801561001057600080fd5b506004361061018d5760003560e01c8063715018a6116100de578063a0560a2f11610097578063b7a8807c11610071578063b7a8807c146103e4578063f0dda65c146103ec578063f2fde38b14610418578063f847dff71461043e5761018d565b8063a0560a2f14610399578063a69e2544146103a1578063a6e158f8146103c75761018d565b8063715018a614610306578063779bbd091461030e5780637d1b0acd146103325780638da5cb5b146103585780638f32d59b1461036057806397c3bb6d1461037c5761018d565b80634263d9281161014b5780635591dc6b116101255780635591dc6b1461029e5780635884dc8e146102c457806364aab239146102cc5780636d1b229d146102e95761018d565b80634263d92814610271578063442307511461027957806354de7b29146102815761018d565b80621174c5146101925780630932f3ac146101d2578063119ab40d146101f157806313b39b9c146102175780631ca94ce6146102435780633355833a1461024b575b600080fd5b6101c0600480360360408110156101a857600080fd5b506001600160a01b038135811691602001351661045b565b60408051918252519081900360200190f35b6101ef600480360360208110156101e857600080fd5b5035610478565b005b6101ef6004803603602081101561020757600080fd5b50356001600160a01b03166104fd565b6101ef6004803603604081101561022d57600080fd5b506001600160a01b03813516906020013561059b565b6101ef6105ff565b6101c06004803603602081101561026157600080fd5b50356001600160a01b03166107d4565b6101c06107e6565b6101ef6107ec565b6101c06004803603602081101561029757600080fd5b5035610852565b6101c0600480360360208110156102b457600080fd5b50356001600160a01b0316610892565b6101c06108a4565b6101ef600480360360208110156102e257600080fd5b50356108aa565b6101ef600480360360208110156102ff57600080fd5b5035610b61565b6101ef610d22565b610316610db3565b604080516001600160a01b039092168252519081900360200190f35b6101ef6004803603602081101561034857600080fd5b50356001600160a01b0316610dc2565b610316610e60565b610368610e6f565b604080519115158252519081900360200190f35b6101ef6004803603602081101561039257600080fd5b5035610e93565b610316610ee9565b610316600480360360208110156103b757600080fd5b50356001600160a01b0316610ef8565b6101ef600480360360208110156103dd57600080fd5b5035610f13565b6101c06111c6565b6101ef6004803603604081101561040257600080fd5b506001600160a01b0381351690602001356111cc565b6101ef6004803603602081101561042e57600080fd5b50356001600160a01b0316611405565b6101ef6004803603602081101561045457600080fd5b5035611458565b600760209081526000928352604080842090915290825290205481565b610480610e6f565b6104bf576040805162461bcd60e51b815260206004820181905260248201526000805160206119da833981519152604482015290519081900360640190fd5b600481905560408051828152905133917f83cd7c71ee9617490d3ff88f4f3dc14ff0dc8c4f2a9b7f70789b9ebeedff1e53919081900360200190a250565b610505610e6f565b610544576040805162461bcd60e51b815260206004820181905260248201526000805160206119da833981519152604482015290519081900360640190fd5b600180546001600160a01b0383166001600160a01b03199091168117909155604080519182525133917fd05cc4c90f97f2119b9475ecd927b3b34cf8cb8ac050b3edd494737d580bef9b919081900360200190a250565b3360008181526007602090815260408083206001600160a01b03871680855290835292819020859055805192835290820184905280517fd8f34436d00b86ab2fbbfe5d96cfa3ec53e71072cedf1f23290740361b007e489281900390910190a25050565b610607610e6f565b610646576040805162461bcd60e51b815260206004820181905260248201526000805160206119da833981519152604482015290519081900360640190fd5b6009546276a7000142101561068c5760405162461bcd60e51b815260040180806020018281038252602b8152602001806119fa602b913960400191505060405180910390fd5b600254604080516370a0823160e01b815230600482015290516000926001600160a01b0316916370a08231916024808301926020929190829003018186803b1580156106d757600080fd5b505afa1580156106eb573d6000803e3d6000fd5b505050506040513d602081101561070157600080fd5b50516002549091506001600160a01b031663a9059cbb61071f610e60565b836040518363ffffffff1660e01b815260040180836001600160a01b03166001600160a01b0316815260200182815260200192505050602060405180830381600087803b15801561076f57600080fd5b505af1158015610783573d6000803e3d6000fd5b505050506040513d602081101561079957600080fd5b505060408051828152905133917f6012ecc11a03e313bcbe5a1238d5332c4b262202c330ee8b76ab67319455f744919081900360200190a250565b60056020526000908152604090205481565b60045481565b33600090815260056020526040902054610805816114dd565b336000818152600560209081526040918290205482518581529182015281517fa567f68bb722b6571d781022bb55bef3f5ea343613d1bf7cb016cc0baac3cb3c929181900390910190a250565b600061088c60646108806108736004546003546115df90919063ffffffff16565b859063ffffffff6115df16565b9063ffffffff61163f16565b92915050565b60066020526000908152604090205481565b60035481565b6009546276a700014211156108f05760405162461bcd60e51b81526004018080602001828103825260308152602001806119626030913960400191505060405180910390fd5b600254604080516370a0823160e01b8152336004820152905183926001600160a01b0316916370a08231916024808301926020929190829003018186803b15801561093a57600080fd5b505afa15801561094e573d6000803e3d6000fd5b505050506040513d602081101561096457600080fd5b505110156109ae576040805162461bcd60e51b81526020600482015260126024820152714e6f7420656e6f7567682062616c616e636560701b604482015290519081900360640190fd5b60025460408051636eb1769f60e11b8152336004820152306024820152905183926001600160a01b03169163dd62ed3e916044808301926020929190829003018186803b1580156109fe57600080fd5b505afa158015610a12573d6000803e3d6000fd5b505050506040513d6020811015610a2857600080fd5b50511015610a675760405162461bcd60e51b815260040180806020018281038252602c8152602001806118be602c913960400191505060405180910390fd5b600254604080516323b872dd60e01b81523360048201523060248201526044810184905290516001600160a01b03909216916323b872dd916064808201926020929091908290030181600087803b158015610ac157600080fd5b505af1158015610ad5573d6000803e3d6000fd5b505050506040513d6020811015610aeb57600080fd5b505033600090815260056020526040902054610b0d908263ffffffff61168116565b33600081815260056020908152604091829020849055815185815290810193909352805191927f1751dfc55304bd8649f08866ffe2a83415305dacc85791d00a705883213355a0929081900390910190a250565b6000610b6c82610852565b336000908152600860209081526040808320546001600160a01b031680845260069092529091205491925090831115610bd65760405162461bcd60e51b81526004018080602001828103825260248152602001806118ea6024913960400191505060405180910390fd5b6001600160a01b038116600090815260056020526040902054610bff908363ffffffff61168116565b6001600160a01b038216600090815260056020908152604080832093909355600690522054610c34908463ffffffff6116db16565b6001600160a01b038083166000908152600660209081526040808320949094556001548451632770a7eb60e21b8152336004820152602481018990529451931693639dc29fac9360448083019491928390030190829087803b158015610c9957600080fd5b505af1158015610cad573d6000803e3d6000fd5b505050506040513d6020811015610cc357600080fd5b50506001600160a01b0381166000818152600660209081526040918290205482513381529182018790528183015290517f83b0793c8a509e11ba3fb1df1c6fd3d314204f3cd82747d263e7daf7f08826269181900360600190a2505050565b610d2a610e6f565b610d69576040805162461bcd60e51b815260206004820181905260248201526000805160206119da833981519152604482015290519081900360640190fd5b600080546040516001600160a01b03909116907f8be0079c531659141344cd1fd0a4f28419497f9722a3daafe3b4186f6b6457e0908390a3600080546001600160a01b0319169055565b6001546001600160a01b031681565b610dca610e6f565b610e09576040805162461bcd60e51b815260206004820181905260248201526000805160206119da833981519152604482015290519081900360640190fd5b600280546001600160a01b0383166001600160a01b03199091168117909155604080519182525133917fe651bb9a51c1fdd8c63c087b2205ae5707fdfa7fbe138fb92c8b24213213f53e919081900360200190a250565b6000546001600160a01b031690565b600080546001600160a01b0316610e8461171d565b6001600160a01b031614905090565b610e9c816114dd565b336000818152600560209081526040918290205482518581529182015281517fb105d74e5bf40610968706d69117f91900aabdbbe00bf8cc700d2945808e655d929181900390910190a250565b6002546001600160a01b031681565b6008602052600090815260409020546001600160a01b031681565b6009546276a70001421015610f595760405162461bcd60e51b815260040180806020018281038252602b815260200180611a25602b913960400191505060405180910390fd5b6000610f6482610852565b336000908152600860209081526040808320546001600160a01b031680845260069092529091205491925090831115610fce5760405162461bcd60e51b815260040180806020018281038252602e81526020018061190e602e913960400191505060405180910390fd5b600354600090610fe4908563ffffffff6115df16565b6001600160a01b038316600090815260056020526040902054909150611022908290611016908663ffffffff61168116565b9063ffffffff6116db16565b6001600160a01b038316600090815260056020908152604080832093909355600690522054611057908563ffffffff6116db16565b6001600160a01b038084166000908152600660209081526040808320949094556001548451632770a7eb60e21b8152336004820152602481018a90529451931693639dc29fac9360448083019491928390030190829087803b1580156110bc57600080fd5b505af11580156110d0573d6000803e3d6000fd5b505050506040513d60208110156110e657600080fd5b50506002546040805163a9059cbb60e01b81523360048201526024810184905290516001600160a01b039092169163a9059cbb916044808201926020929091908290030181600087803b15801561113c57600080fd5b505af1158015611150573d6000803e3d6000fd5b505050506040513d602081101561116657600080fd5b50506001600160a01b0382166000818152600660209081526040918290205482513381529182018890528183015290517f309ecf0de0605f79d19391d8a7d3b60595dc3e303c12fc3f1ef583e3d965b01e9181900360600190a250505050565b60095481565b6001600160a01b038216600090815260076020908152604080832033845290915290205481111561122e5760405162461bcd60e51b81526004018080602001828103825260278152602001806119926027913960400191505060405180910390fd5b600061123982610852565b33600090815260056020526040902054909150811115611298576040805162461bcd60e51b8152602060048201526015602482015274139bdd08195b9bdd59da081110524814dd185ad959605a1b604482015290519081900360640190fd5b336000908152600560205260409020546112b8908263ffffffff6116db16565b336000908152600560209081526040808320939093556006905220546112e4908363ffffffff61168116565b336000818152600660209081526040808320949094556001600160a01b038781168084526007835285842085855283528584208490558084526008835285842080546001600160a01b03191690951790945560015485516340c10f1960e01b815260048101959095526024850188905294519416936340c10f1993604480820194918390030190829087803b15801561137c57600080fd5b505af1158015611390573d6000803e3d6000fd5b505050506040513d60208110156113a657600080fd5b5050336000818152600660209081526040918290205482516001600160a01b03881681529182018690528183015290517f74d9b6c213a7e3321934149954f293a8174d4eb1dd9bcc9ab8f9b241aee11ec59181900360600190a2505050565b61140d610e6f565b61144c576040805162461bcd60e51b815260206004820181905260248201526000805160206119da833981519152604482015290519081900360640190fd5b61145581611721565b50565b611460610e6f565b61149f576040805162461bcd60e51b815260206004820181905260248201526000805160206119da833981519152604482015290519081900360640190fd5b600381905560408051828152905133917fc51cfac5db3395d64715b425f11482cf20d5ef107b85c309ed004a12c787480e919081900360200190a250565b3360009081526005602052604090205481111561152b5760405162461bcd60e51b815260040180806020018281038252602f815260200180611a50602f913960400191505060405180910390fd5b3360009081526005602052604090205461154b908263ffffffff6116db16565b33600081815260056020908152604080832094909455600254845163a9059cbb60e01b815260048101949094526024840186905293516001600160a01b039094169363a9059cbb93604480820194918390030190829087803b1580156115b057600080fd5b505af11580156115c4573d6000803e3d6000fd5b505050506040513d60208110156115da57600080fd5b505050565b6000826115ee5750600061088c565b828202828482816115fb57fe5b04146116385760405162461bcd60e51b81526004018080602001828103825260218152602001806119b96021913960400191505060405180910390fd5b9392505050565b600061163883836040518060400160405280601a81526020017f536166654d6174683a206469766973696f6e206279207a65726f0000000000008152506117c1565b600082820183811015611638576040805162461bcd60e51b815260206004820152601b60248201527f536166654d6174683a206164646974696f6e206f766572666c6f770000000000604482015290519081900360640190fd5b600061163883836040518060400160405280601e81526020017f536166654d6174683a207375627472616374696f6e206f766572666c6f770000815250611863565b3390565b6001600160a01b0381166117665760405162461bcd60e51b815260040180806020018281038252602681526020018061193c6026913960400191505060405180910390fd5b600080546040516001600160a01b03808516939216917f8be0079c531659141344cd1fd0a4f28419497f9722a3daafe3b4186f6b6457e091a3600080546001600160a01b0319166001600160a01b0392909216919091179055565b6000818361184d5760405162461bcd60e51b81526004018080602001828103825283818151815260200191508051906020019080838360005b838110156118125781810151838201526020016117fa565b50505050905090810190601f16801561183f5780820380516001836020036101000a031916815260200191505b509250505060405180910390fd5b50600083858161185957fe5b0495945050505050565b600081848411156118b55760405162461bcd60e51b81526020600482018181528351602484015283519092839260449091019190850190808383600083156118125781810151838201526020016117fa565b50505090039056fe436f6e747261637420616c6c6f77616e636520697320746f206c6f77206f72206e6f7420617070726f7665644275726e20616d6f756e7420686967686572207468616e207374616b65206d696e74656452656465656d20616d6f756e7420697320686967686572207468616e2072656465656d61626c6520616d6f756e744f776e61626c653a206e6577206f776e657220697320746865207a65726f20616464726573736f6e6c7920617661696c61626c6520647572696e67207468652033206d6f6e746873206f66206465706c6f796d656e744d696e742076616c756520626967676572207468616e20617070726f7665642062792075736572536166654d6174683a206d756c7469706c69636174696f6e206f766572666c6f774f776e61626c653a2063616c6c6572206973206e6f7420746865206f776e65726f6e6c7920617661696c61626c652061667465722036206d6f6e746873206f66206465706c6f796d656e746f6e6c7920617661696c61626c652061667465722033206d6f6e746873206f66206465706c6f796d656e74416d6f756e7420626967676572207468616e2063757272656e7420617661696c61626c6520746f2072657472697665a265627a7a72315820d8d944c28df0e86d883d09cab52010bddab06848671ce6e1c9b9bcfc5a1a9f0c64736f6c634300050b0032",
    "sourcePath": "/home/crisgarner/Projects/affogato/wcc/contracts/CoffeeHandler.sol",
    "compiler": {
        "name": "solc",
        "version": "0.5.11+commit.c082d0b4"
    },
    "functionHashes": {
        "COFFEE_PRICE()": "5884dc8e",
        "DAI_CONTRACT()": "a0560a2f",
        "STAKE_RATE()": "4263d928",
        "WCC_CONTRACT()": "779bbd09",
        "approveMint(address,uint256)": "13b39b9c",
        "burnTokens(uint256)": "6d1b229d",
        "isOwner()": "8f32d59b",
        "liquidateStakedDAI()": "1ca94ce6",
        "mintTokens(address,uint256)": "f0dda65c",
        "openingTime()": "b7a8807c",
        "owner()": "8da5cb5b",
        "redeemTokens(uint256)": "a6e158f8",
        "removeAllStakedDAI()": "44230751",
        "removeStakedDAI(uint256)": "97c3bb6d",
        "renounceOwnership()": "715018a6",
        "requiredAmount(uint256)": "54de7b29",
        "setCoffeePrice(uint256)": "f847dff7",
        "setDAIContract(address)": "7d1b0acd",
        "setStakeRate(uint256)": "0932f3ac",
        "setWCCContract(address)": "119ab40d",
        "stakeDAI(uint256)": "64aab239",
        "tokensMintApproved(address,address)": "001174c5",
        "tokensUsed(address)": "5591dc6b",
        "transferOwnership(address)": "f2fde38b",
        "userToStake(address)": "3355833a",
        "userToValidator(address)": "a69e2544"
    },
    "gasEstimates": {
        "creation": {
            "codeDepositCost": "1367000",
            "executionCost": "infinite",
            "totalCost": "infinite"
        },
        "external": {
            "COFFEE_PRICE()": "465",
            "DAI_CONTRACT()": "482",
            "STAKE_RATE()": "444",
            "WCC_CONTRACT()": "482",
            "approveMint(address,uint256)": "22201",
            "burnTokens(uint256)": "infinite",
            "isOwner()": "591",
            "liquidateStakedDAI()": "infinite",
            "mintTokens(address,uint256)": "infinite",
            "openingTime()": "442",
            "owner()": "526",
            "redeemTokens(uint256)": "infinite",
            "removeAllStakedDAI()": "infinite",
            "removeStakedDAI(uint256)": "infinite",
            "renounceOwnership()": "infinite",
            "requiredAmount(uint256)": "infinite",
            "setCoffeePrice(uint256)": "infinite",
            "setDAIContract(address)": "infinite",
            "setStakeRate(uint256)": "infinite",
            "setWCCContract(address)": "infinite",
            "stakeDAI(uint256)": "infinite",
            "tokensMintApproved(address,address)": "641",
            "tokensUsed(address)": "569",
            "transferOwnership(address)": "infinite",
            "userToStake(address)": "658",
            "userToValidator(address)": "630"
        },
        "internal": {
            "_removeStakedDAI(uint256)": "infinite"
        }
    }
}