{
    "contractName": "WrappedCoffeeCoin",
    "abi": [
        {
            "constant": true,
            "inputs": [],
            "name": "name",
            "outputs": [
                {
                    "internalType": "string",
                    "name": "",
                    "type": "string"
                }
            ],
            "payable": false,
            "stateMutability": "view",
            "type": "function"
        },
        {
            "constant": false,
            "inputs": [
                {
                    "internalType": "address",
                    "name": "spender",
                    "type": "address"
                },
                {
                    "internalType": "uint256",
                    "name": "amount",
                    "type": "uint256"
                }
            ],
            "name": "approve",
            "outputs": [
                {
                    "internalType": "bool",
                    "name": "",
                    "type": "bool"
                }
            ],
            "payable": false,
            "stateMutability": "nonpayable",
            "type": "function"
        },
        {
            "constant": false,
            "inputs": [
                {
                    "internalType": "string",
                    "name": "_ipfs",
                    "type": "string"
                }
            ],
            "name": "updateCoffee",
            "outputs": [],
            "payable": false,
            "stateMutability": "nonpayable",
            "type": "function"
        },
        {
            "constant": true,
            "inputs": [],
            "name": "totalSupply",
            "outputs": [
                {
                    "internalType": "uint256",
                    "name": "",
                    "type": "uint256"
                }
            ],
            "payable": false,
            "stateMutability": "view",
            "type": "function"
        },
        {
            "constant": true,
            "inputs": [],
            "name": "getCoffee",
            "outputs": [
                {
                    "internalType": "string",
                    "name": "",
                    "type": "string"
                }
            ],
            "payable": false,
            "stateMutability": "view",
            "type": "function"
        },
        {
            "constant": false,
            "inputs": [
                {
                    "internalType": "address",
                    "name": "sender",
                    "type": "address"
                },
                {
                    "internalType": "address",
                    "name": "recipient",
                    "type": "address"
                },
                {
                    "internalType": "uint256",
                    "name": "amount",
                    "type": "uint256"
                }
            ],
            "name": "transferFrom",
            "outputs": [
                {
                    "internalType": "bool",
                    "name": "",
                    "type": "bool"
                }
            ],
            "payable": false,
            "stateMutability": "nonpayable",
            "type": "function"
        },
        {
            "constant": true,
            "inputs": [],
            "name": "decimals",
            "outputs": [
                {
                    "internalType": "uint8",
                    "name": "",
                    "type": "uint8"
                }
            ],
            "payable": false,
            "stateMutability": "view",
            "type": "function"
        },
        {
            "constant": false,
            "inputs": [
                {
                    "internalType": "address",
                    "name": "spender",
                    "type": "address"
                },
                {
                    "internalType": "uint256",
                    "name": "addedValue",
                    "type": "uint256"
                }
            ],
            "name": "increaseAllowance",
            "outputs": [
                {
                    "internalType": "bool",
                    "name": "",
                    "type": "bool"
                }
            ],
            "payable": false,
            "stateMutability": "nonpayable",
            "type": "function"
        },
        {
            "constant": false,
            "inputs": [
                {
                    "internalType": "address",
                    "name": "account",
                    "type": "address"
                },
                {
                    "internalType": "uint256",
                    "name": "amount",
                    "type": "uint256"
                }
            ],
            "name": "mint",
            "outputs": [
                {
                    "internalType": "bool",
                    "name": "",
                    "type": "bool"
                }
            ],
            "payable": false,
            "stateMutability": "nonpayable",
            "type": "function"
        },
        {
            "constant": true,
            "inputs": [],
            "name": "coffeeHandler",
            "outputs": [
                {
                    "internalType": "address",
                    "name": "",
                    "type": "address"
                }
            ],
            "payable": false,
            "stateMutability": "view",
            "type": "function"
        },
        {
            "constant": true,
            "inputs": [
                {
                    "internalType": "address",
                    "name": "account",
                    "type": "address"
                }
            ],
            "name": "balanceOf",
            "outputs": [
                {
                    "internalType": "uint256",
                    "name": "",
                    "type": "uint256"
                }
            ],
            "payable": false,
            "stateMutability": "view",
            "type": "function"
        },
        {
            "constant": false,
            "inputs": [],
            "name": "renounceOwnership",
            "outputs": [],
            "payable": false,
            "stateMutability": "nonpayable",
            "type": "function"
        },
        {
            "constant": true,
            "inputs": [],
            "name": "owner",
            "outputs": [
                {
                    "internalType": "address",
                    "name": "",
                    "type": "address"
                }
            ],
            "payable": false,
            "stateMutability": "view",
            "type": "function"
        },
        {
            "constant": true,
            "inputs": [],
            "name": "isOwner",
            "outputs": [
                {
                    "internalType": "bool",
                    "name": "",
                    "type": "bool"
                }
            ],
            "payable": false,
            "stateMutability": "view",
            "type": "function"
        },
        {
            "constant": true,
            "inputs": [],
            "name": "symbol",
            "outputs": [
                {
                    "internalType": "string",
                    "name": "",
                    "type": "string"
                }
            ],
            "payable": false,
            "stateMutability": "view",
            "type": "function"
        },
        {
            "constant": false,
            "inputs": [
                {
                    "internalType": "address",
                    "name": "account",
                    "type": "address"
                }
            ],
            "name": "addMinter",
            "outputs": [],
            "payable": false,
            "stateMutability": "nonpayable",
            "type": "function"
        },
        {
            "constant": false,
            "inputs": [],
            "name": "renounceMinter",
            "outputs": [],
            "payable": false,
            "stateMutability": "nonpayable",
            "type": "function"
        },
        {
            "constant": false,
            "inputs": [
                {
                    "internalType": "address",
                    "name": "account",
                    "type": "address"
                },
                {
                    "internalType": "uint256",
                    "name": "amount",
                    "type": "uint256"
                }
            ],
            "name": "burn",
            "outputs": [
                {
                    "internalType": "bool",
                    "name": "",
                    "type": "bool"
                }
            ],
            "payable": false,
            "stateMutability": "nonpayable",
            "type": "function"
        },
        {
            "constant": false,
            "inputs": [
                {
                    "internalType": "address",
                    "name": "spender",
                    "type": "address"
                },
                {
                    "internalType": "uint256",
                    "name": "subtractedValue",
                    "type": "uint256"
                }
            ],
            "name": "decreaseAllowance",
            "outputs": [
                {
                    "internalType": "bool",
                    "name": "",
                    "type": "bool"
                }
            ],
            "payable": false,
            "stateMutability": "nonpayable",
            "type": "function"
        },
        {
            "constant": false,
            "inputs": [
                {
                    "internalType": "address",
                    "name": "recipient",
                    "type": "address"
                },
                {
                    "internalType": "uint256",
                    "name": "amount",
                    "type": "uint256"
                }
            ],
            "name": "transfer",
            "outputs": [
                {
                    "internalType": "bool",
                    "name": "",
                    "type": "bool"
                }
            ],
            "payable": false,
            "stateMutability": "nonpayable",
            "type": "function"
        },
        {
            "constant": true,
            "inputs": [
                {
                    "internalType": "address",
                    "name": "account",
                    "type": "address"
                }
            ],
            "name": "isMinter",
            "outputs": [
                {
                    "internalType": "bool",
                    "name": "",
                    "type": "bool"
                }
            ],
            "payable": false,
            "stateMutability": "view",
            "type": "function"
        },
        {
            "constant": false,
            "inputs": [
                {
                    "internalType": "address",
                    "name": "_coffeeHandler",
                    "type": "address"
                }
            ],
            "name": "setCoffeeHandler",
            "outputs": [],
            "payable": false,
            "stateMutability": "nonpayable",
            "type": "function"
        },
        {
            "constant": true,
            "inputs": [
                {
                    "internalType": "address",
                    "name": "owner",
                    "type": "address"
                },
                {
                    "internalType": "address",
                    "name": "spender",
                    "type": "address"
                }
            ],
            "name": "allowance",
            "outputs": [
                {
                    "internalType": "uint256",
                    "name": "",
                    "type": "uint256"
                }
            ],
            "payable": false,
            "stateMutability": "view",
            "type": "function"
        },
        {
            "constant": false,
            "inputs": [
                {
                    "internalType": "address",
                    "name": "newOwner",
                    "type": "address"
                }
            ],
            "name": "transferOwnership",
            "outputs": [],
            "payable": false,
            "stateMutability": "nonpayable",
            "type": "function"
        },
        {
            "inputs": [],
            "payable": false,
            "stateMutability": "nonpayable",
            "type": "constructor"
        },
        {
            "anonymous": false,
            "inputs": [
                {
                    "indexed": true,
                    "internalType": "address",
                    "name": "_owner",
                    "type": "address"
                },
                {
                    "indexed": false,
                    "internalType": "address",
                    "name": "_contract",
                    "type": "address"
                }
            ],
            "name": "LogSetCoffeeHandler",
            "type": "event"
        },
        {
            "anonymous": false,
            "inputs": [
                {
                    "indexed": true,
                    "internalType": "address",
                    "name": "account",
                    "type": "address"
                }
            ],
            "name": "MinterAdded",
            "type": "event"
        },
        {
            "anonymous": false,
            "inputs": [
                {
                    "indexed": true,
                    "internalType": "address",
                    "name": "account",
                    "type": "address"
                }
            ],
            "name": "MinterRemoved",
            "type": "event"
        },
        {
            "anonymous": false,
            "inputs": [
                {
                    "indexed": true,
                    "internalType": "address",
                    "name": "previousOwner",
                    "type": "address"
                },
                {
                    "indexed": true,
                    "internalType": "address",
                    "name": "newOwner",
                    "type": "address"
                }
            ],
            "name": "OwnershipTransferred",
            "type": "event"
        },
        {
            "anonymous": false,
            "inputs": [
                {
                    "indexed": true,
                    "internalType": "address",
                    "name": "from",
                    "type": "address"
                },
                {
                    "indexed": true,
                    "internalType": "address",
                    "name": "to",
                    "type": "address"
                },
                {
                    "indexed": false,
                    "internalType": "uint256",
                    "name": "value",
                    "type": "uint256"
                }
            ],
            "name": "Transfer",
            "type": "event"
        },
        {
            "anonymous": false,
            "inputs": [
                {
                    "indexed": true,
                    "internalType": "address",
                    "name": "owner",
                    "type": "address"
                },
                {
                    "indexed": true,
                    "internalType": "address",
                    "name": "spender",
                    "type": "address"
                },
                {
                    "indexed": false,
                    "internalType": "uint256",
                    "name": "value",
                    "type": "uint256"
                }
            ],
            "name": "Approval",
            "type": "event"
        }
    ],
    "bytecode": "60806040523480156200001157600080fd5b506040518060400160405280601381526020017f5772617070656420436f6666656520436f696e000000000000000000000000008152506040518060400160405280600381526020017f57434300000000000000000000000000000000000000000000000000000000008152506000826003908051906020019062000098929190620002d5565b508151620000ae906004906020850190620002d5565b506005805460ff191660ff9290921691909117905550620000d0905062000154565b60058054610100600160a81b0319166101006001600160a01b03938416810291909117918290556040519104909116906000907f8be0079c531659141344cd1fd0a4f28419497f9722a3daafe3b4186f6b6457e0908290a36200014e6200013f6001600160e01b036200015416565b6001600160e01b036200015916565b62000377565b335b90565b62000174816006620001ab60201b620013e71790919060201c565b6040516001600160a01b038216907f6ae172837ea30b801fbfcdd4108aa1d5bf8ff775444fd70256b44e6bf3dfc3f690600090a250565b620001c082826001600160e01b036200025216565b156200022d57604080517f08c379a000000000000000000000000000000000000000000000000000000000815260206004820152601f60248201527f526f6c65733a206163636f756e7420616c72656164792068617320726f6c6500604482015290519081900360640190fd5b6001600160a01b0316600090815260209190915260409020805460ff19166001179055565b60006001600160a01b038216620002b5576040517f08c379a000000000000000000000000000000000000000000000000000000000815260040180806020018281038252602281526020018062001b636022913960400191505060405180910390fd5b506001600160a01b03166000908152602091909152604090205460ff1690565b828054600181600116156101000203166002900490600052602060002090601f016020900481019282601f106200031857805160ff191683800117855562000348565b8280016001018555821562000348579182015b82811115620003485782518255916020019190600101906200032b565b50620003569291506200035a565b5090565b6200015691905b8082111562000356576000815560010162000361565b6117dc80620003876000396000f3fe608060405234801561001057600080fd5b50600436106101585760003560e01c80638da5cb5b116100c3578063a457c2d71161007c578063a457c2d714610454578063a9059cbb14610480578063aa271e1a146104ac578063b070a4e4146104d2578063dd62ed3e146104f8578063f2fde38b1461052657610158565b80638da5cb5b146103e25780638f32d59b146103ea57806395d89b41146103f2578063983b2d56146103fa57806398650275146104205780639dc29fac1461042857610158565b8063313ce56711610115578063313ce5671461031a578063395093511461033857806340c10f19146103645780636e830b131461039057806370a08231146103b4578063715018a6146103da57610158565b806306fdde031461015d578063095ea7b3146101da5780630f7962e51461021a57806318160ddd146102c25780631d134704146102dc57806323b872dd146102e4575b600080fd5b61016561054c565b6040805160208082528351818301528351919283929083019185019080838360005b8381101561019f578181015183820152602001610187565b50505050905090810190601f1680156101cc5780820380516001836020036101000a031916815260200191505b509250505060405180910390f35b610206600480360360408110156101f057600080fd5b506001600160a01b0381351690602001356105e3565b604080519115158252519081900360200190f35b6102c06004803603602081101561023057600080fd5b81019060208101813564010000000081111561024b57600080fd5b82018360208201111561025d57600080fd5b8035906020019184600183028401116401000000008311171561027f57600080fd5b91908080601f016020809104026020016040519081016040528093929190818152602001838380828437600092019190915250929550610600945050505050565b005b6102ca61069f565b60408051918252519081900360200190f35b6101656106a5565b610206600480360360608110156102fa57600080fd5b506001600160a01b03813581169160208101359091169060400135610706565b610322610793565b6040805160ff9092168252519081900360200190f35b6102066004803603604081101561034e57600080fd5b506001600160a01b03813516906020013561079c565b6102066004803603604081101561037a57600080fd5b506001600160a01b0381351690602001356107f0565b61039861089f565b604080516001600160a01b039092168252519081900360200190f35b6102ca600480360360208110156103ca57600080fd5b50356001600160a01b03166108ae565b6102c06108c9565b610398610972565b610206610986565b6101656109b1565b6102c06004803603602081101561041057600080fd5b50356001600160a01b0316610a12565b6102c0610a64565b6102066004803603604081101561043e57600080fd5b506001600160a01b038135169060200135610a76565b6102066004803603604081101561046a57600080fd5b506001600160a01b038135169060200135610b25565b6102066004803603604081101561049657600080fd5b506001600160a01b038135169060200135610b93565b610206600480360360208110156104c257600080fd5b50356001600160a01b0316610ba7565b6102c0600480360360208110156104e857600080fd5b50356001600160a01b0316610bc0565b6102ca6004803603604081101561050e57600080fd5b506001600160a01b0381358116916020013516610c87565b6102c06004803603602081101561053c57600080fd5b50356001600160a01b0316610cb2565b60038054604080516020601f60026000196101006001881615020190951694909404938401819004810282018101909252828152606093909290918301828280156105d85780601f106105ad576101008083540402835291602001916105d8565b820191906000526020600020905b8154815290600101906020018083116105bb57829003601f168201915b505050505090505b90565b60006105f76105f0610d14565b8484610d18565b50600192915050565b61061061060b610d14565b610ba7565b61064b5760405162461bcd60e51b815260040180806020018281038252603081526020018061165d6030913960400191505060405180910390fd5b80516106885760405162461bcd60e51b81526004018080602001828103825260218152602001806117626021913960400191505060405180910390fd5b805161069b906007906020840190611511565b5050565b60025490565b60078054604080516020601f60026000196101006001881615020190951694909404938401819004810282018101909252828152606093909290918301828280156105d85780601f106105ad576101008083540402835291602001916105d8565b6000610713848484610e04565b6107898461071f610d14565b610784856040518060600160405280602881526020016116ae602891396001600160a01b038a1660009081526001602052604081209061075d610d14565b6001600160a01b03168152602081019190915260400160002054919063ffffffff610f6016565b610d18565b5060019392505050565b60055460ff1690565b60006105f76107a9610d14565b8461078485600160006107ba610d14565b6001600160a01b03908116825260208083019390935260409182016000908120918c16815292529020549063ffffffff610ff716565b60006107fd61060b610d14565b6108385760405162461bcd60e51b815260040180806020018281038252603081526020018061165d6030913960400191505060405180910390fd5b6008546001600160a01b0316610895576040805162461bcd60e51b815260206004820152601a60248201527f436f666665652048616e646c6572206d75737420626520736574000000000000604482015290519081900360640190fd5b6105f78383611058565b6008546001600160a01b031681565b6001600160a01b031660009081526020819052604090205490565b6108d1610986565b610922576040805162461bcd60e51b815260206004820181905260248201527f4f776e61626c653a2063616c6c6572206973206e6f7420746865206f776e6572604482015290519081900360640190fd5b60055460405160009161010090046001600160a01b0316907f8be0079c531659141344cd1fd0a4f28419497f9722a3daafe3b4186f6b6457e0908390a360058054610100600160a81b0319169055565b60055461010090046001600160a01b031690565b60055460009061010090046001600160a01b03166109a2610d14565b6001600160a01b031614905090565b60048054604080516020601f60026000196101006001881615020190951694909404938401819004810282018101909252828152606093909290918301828280156105d85780601f106105ad576101008083540402835291602001916105d8565b610a1d61060b610d14565b610a585760405162461bcd60e51b815260040180806020018281038252603081526020018061165d6030913960400191505060405180910390fd5b610a6181611148565b50565b610a74610a6f610d14565b611190565b565b6000610a8361060b610d14565b610abe5760405162461bcd60e51b815260040180806020018281038252603081526020018061165d6030913960400191505060405180910390fd5b6008546001600160a01b0316610b1b576040805162461bcd60e51b815260206004820152601a60248201527f436f666665652048616e646c6572206d75737420626520736574000000000000604482015290519081900360640190fd5b6105f783836111d8565b60006105f7610b32610d14565b84610784856040518060600160405280602581526020016117836025913960016000610b5c610d14565b6001600160a01b03908116825260208083019390935260409182016000908120918d1681529252902054919063ffffffff610f6016565b60006105f7610ba0610d14565b8484610e04565b6000610bba60068363ffffffff6112d416565b92915050565b610bc8610986565b610c19576040805162461bcd60e51b815260206004820181905260248201527f4f776e61626c653a2063616c6c6572206973206e6f7420746865206f776e6572604482015290519081900360640190fd5b610c2281610a12565b600880546001600160a01b0319166001600160a01b038316179055610c45610a64565b604080516001600160a01b0383168152905133917f98f8f056a8c545b6b483f1782b3e55920dfc4a2feac02b6d69ff1f30d53ffd2c919081900360200190a250565b6001600160a01b03918216600090815260016020908152604080832093909416825291909152205490565b610cba610986565b610d0b576040805162461bcd60e51b815260206004820181905260248201527f4f776e61626c653a2063616c6c6572206973206e6f7420746865206f776e6572604482015290519081900360640190fd5b610a618161133b565b3390565b6001600160a01b038316610d5d5760405162461bcd60e51b815260040180806020018281038252602481526020018061173e6024913960400191505060405180910390fd5b6001600160a01b038216610da25760405162461bcd60e51b81526004018080602001828103825260228152602001806116156022913960400191505060405180910390fd5b6001600160a01b03808416600081815260016020908152604080832094871680845294825291829020859055815185815291517f8c5be1e5ebec7d5bd14f71427d1e84f3dd0314c0f7b2291e5b200ac8c7c3b9259281900390910190a3505050565b6001600160a01b038316610e495760405162461bcd60e51b81526004018080602001828103825260258152602001806117196025913960400191505060405180910390fd5b6001600160a01b038216610e8e5760405162461bcd60e51b81526004018080602001828103825260238152602001806115aa6023913960400191505060405180910390fd5b610ed181604051806060016040528060268152602001611637602691396001600160a01b038616600090815260208190526040902054919063ffffffff610f6016565b6001600160a01b038085166000908152602081905260408082209390935590841681522054610f06908263ffffffff610ff716565b6001600160a01b038084166000818152602081815260409182902094909455805185815290519193928716927fddf252ad1be2c89b69c2b068fc378daa952ba7f163c4a11628f55a4df523b3ef92918290030190a3505050565b60008184841115610fef5760405162461bcd60e51b81526004018080602001828103825283818151815260200191508051906020019080838360005b83811015610fb4578181015183820152602001610f9c565b50505050905090810190601f168015610fe15780820380516001836020036101000a031916815260200191505b509250505060405180910390fd5b505050900390565b600082820183811015611051576040805162461bcd60e51b815260206004820152601b60248201527f536166654d6174683a206164646974696f6e206f766572666c6f770000000000604482015290519081900360640190fd5b9392505050565b6001600160a01b0382166110b3576040805162461bcd60e51b815260206004820152601f60248201527f45524332303a206d696e7420746f20746865207a65726f206164647265737300604482015290519081900360640190fd5b6002546110c6908263ffffffff610ff716565b6002556001600160a01b0382166000908152602081905260409020546110f2908263ffffffff610ff716565b6001600160a01b0383166000818152602081815260408083209490945583518581529351929391927fddf252ad1be2c89b69c2b068fc378daa952ba7f163c4a11628f55a4df523b3ef9281900390910190a35050565b61115960068263ffffffff6113e716565b6040516001600160a01b038216907f6ae172837ea30b801fbfcdd4108aa1d5bf8ff775444fd70256b44e6bf3dfc3f690600090a250565b6111a160068263ffffffff61146816565b6040516001600160a01b038216907fe94479a9f7e1952cc78f2d6baab678adc1b772d936c6583def489e524cb6669290600090a250565b6001600160a01b03821661121d5760405162461bcd60e51b81526004018080602001828103825260218152602001806116f86021913960400191505060405180910390fd5b611260816040518060600160405280602281526020016115cd602291396001600160a01b038516600090815260208190526040902054919063ffffffff610f6016565b6001600160a01b03831660009081526020819052604090205560025461128c908263ffffffff6114cf16565b6002556040805182815290516000916001600160a01b038516917fddf252ad1be2c89b69c2b068fc378daa952ba7f163c4a11628f55a4df523b3ef9181900360200190a35050565b60006001600160a01b03821661131b5760405162461bcd60e51b81526004018080602001828103825260228152602001806116d66022913960400191505060405180910390fd5b506001600160a01b03166000908152602091909152604090205460ff1690565b6001600160a01b0381166113805760405162461bcd60e51b81526004018080602001828103825260268152602001806115ef6026913960400191505060405180910390fd5b6005546040516001600160a01b0380841692610100900416907f8be0079c531659141344cd1fd0a4f28419497f9722a3daafe3b4186f6b6457e090600090a3600580546001600160a01b0390921661010002610100600160a81b0319909216919091179055565b6113f182826112d4565b15611443576040805162461bcd60e51b815260206004820152601f60248201527f526f6c65733a206163636f756e7420616c72656164792068617320726f6c6500604482015290519081900360640190fd5b6001600160a01b0316600090815260209190915260409020805460ff19166001179055565b61147282826112d4565b6114ad5760405162461bcd60e51b815260040180806020018281038252602181526020018061168d6021913960400191505060405180910390fd5b6001600160a01b0316600090815260209190915260409020805460ff19169055565b600061105183836040518060400160405280601e81526020017f536166654d6174683a207375627472616374696f6e206f766572666c6f770000815250610f60565b828054600181600116156101000203166002900490600052602060002090601f016020900481019282601f1061155257805160ff191683800117855561157f565b8280016001018555821561157f579182015b8281111561157f578251825591602001919060010190611564565b5061158b92915061158f565b5090565b6105e091905b8082111561158b576000815560010161159556fe45524332303a207472616e7366657220746f20746865207a65726f206164647265737345524332303a206275726e20616d6f756e7420657863656564732062616c616e63654f776e61626c653a206e6577206f776e657220697320746865207a65726f206164647265737345524332303a20617070726f766520746f20746865207a65726f206164647265737345524332303a207472616e7366657220616d6f756e7420657863656564732062616c616e63654d696e746572526f6c653a2063616c6c657220646f6573206e6f74206861766520746865204d696e74657220726f6c65526f6c65733a206163636f756e7420646f6573206e6f74206861766520726f6c6545524332303a207472616e7366657220616d6f756e74206578636565647320616c6c6f77616e6365526f6c65733a206163636f756e7420697320746865207a65726f206164647265737345524332303a206275726e2066726f6d20746865207a65726f206164647265737345524332303a207472616e736665722066726f6d20746865207a65726f206164647265737345524332303a20617070726f76652066726f6d20746865207a65726f2061646472657373546865204950465320706f696e7465722063616e6e6f7420626520656d7074792e45524332303a2064656372656173656420616c6c6f77616e63652062656c6f77207a65726fa265627a7a72315820dd932dc3f0aa0b0426f5c13b71244b51c1ed0e3bff62ce9ca9cb9eeeceecf10c64736f6c634300050b0032526f6c65733a206163636f756e7420697320746865207a65726f2061646472657373",
    "sourcePath": "/home/crisgarner/Projects/affogato/wcc/contracts/WrappedCoffeeCoin.sol",
    "compiler": {
        "name": "solc",
        "version": "0.5.11+commit.c082d0b4"
    },
    "functionHashes": {
        "addMinter(address)": "983b2d56",
        "allowance(address,address)": "dd62ed3e",
        "approve(address,uint256)": "095ea7b3",
        "balanceOf(address)": "70a08231",
        "burn(address,uint256)": "9dc29fac",
        "coffeeHandler()": "6e830b13",
        "decimals()": "313ce567",
        "decreaseAllowance(address,uint256)": "a457c2d7",
        "getCoffee()": "1d134704",
        "increaseAllowance(address,uint256)": "39509351",
        "isMinter(address)": "aa271e1a",
        "isOwner()": "8f32d59b",
        "mint(address,uint256)": "40c10f19",
        "name()": "06fdde03",
        "owner()": "8da5cb5b",
        "renounceMinter()": "98650275",
        "renounceOwnership()": "715018a6",
        "setCoffeeHandler(address)": "b070a4e4",
        "symbol()": "95d89b41",
        "totalSupply()": "18160ddd",
        "transfer(address,uint256)": "a9059cbb",
        "transferFrom(address,address,uint256)": "23b872dd",
        "transferOwnership(address)": "f2fde38b",
        "updateCoffee(string)": "0f7962e5"
    },
    "gasEstimates": {
        "creation": {
            "codeDepositCost": "1221600",
            "executionCost": "infinite",
            "totalCost": "infinite"
        },
        "external": {
            "addMinter(address)": "infinite",
            "allowance(address,address)": "760",
            "approve(address,uint256)": "infinite",
            "balanceOf(address)": "656",
            "burn(address,uint256)": "infinite",
            "coffeeHandler()": "526",
            "decimals()": "436",
            "decreaseAllowance(address,uint256)": "infinite",
            "getCoffee()": "infinite",
            "increaseAllowance(address,uint256)": "infinite",
            "isMinter(address)": "infinite",
            "isOwner()": "539",
            "mint(address,uint256)": "infinite",
            "name()": "infinite",
            "owner()": "471",
            "renounceMinter()": "infinite",
            "renounceOwnership()": "22600",
            "setCoffeeHandler(address)": "infinite",
            "symbol()": "infinite",
            "totalSupply()": "488",
            "transfer(address,uint256)": "infinite",
            "transferFrom(address,address,uint256)": "infinite",
            "transferOwnership(address)": "infinite",
            "updateCoffee(string)": "infinite"
        }
    }
}